{
  "address": "0xD5c25Cf659a65dD3Eb7856bcadD8539225Cd66dB",
  "abi": [
    {
      "inputs": [
        {
          "internalType": "address",
          "name": "_bank",
          "type": "address"
        },
        {
          "internalType": "address",
          "name": "_relay",
          "type": "address"
        },
        {
          "internalType": "address",
          "name": "_ecdsaWalletRegistry",
          "type": "address"
        },
        {
          "internalType": "address",
          "name": "_reimbursementPool",
          "type": "address"
        }
      ],
      "stateMutability": "nonpayable",
      "type": "constructor"
    },
    {
      "inputs": [],
      "name": "bank",
      "outputs": [
        {
          "internalType": "address",
          "name": "",
          "type": "address"
        }
      ],
      "stateMutability": "view",
      "type": "function"
    },
    {
      "inputs": [],
      "name": "contractReferences",
      "outputs": [
        {
          "internalType": "address",
          "name": "_bank",
          "type": "address"
        },
        {
          "internalType": "address",
          "name": "_relay",
          "type": "address"
        },
        {
          "internalType": "address",
          "name": "_ecdsaWalletRegistry",
          "type": "address"
        },
        {
          "internalType": "address",
          "name": "_reimbursementPool",
          "type": "address"
        }
      ],
      "stateMutability": "view",
      "type": "function"
    },
    {
      "inputs": [],
      "name": "ecdsaWalletRegistry",
      "outputs": [
        {
          "internalType": "address",
          "name": "",
          "type": "address"
        }
      ],
      "stateMutability": "view",
      "type": "function"
    },
    {
      "inputs": [],
      "name": "getRedemptionWatchtower",
      "outputs": [
        {
          "internalType": "address",
          "name": "",
          "type": "address"
        }
      ],
      "stateMutability": "pure",
      "type": "function"
    },
    {
      "inputs": [],
      "name": "reimbursementPool",
      "outputs": [
        {
          "internalType": "address",
          "name": "",
          "type": "address"
        }
      ],
      "stateMutability": "view",
      "type": "function"
    },
    {
      "inputs": [],
      "name": "relay",
      "outputs": [
        {
          "internalType": "address",
          "name": "",
          "type": "address"
        }
      ],
      "stateMutability": "view",
      "type": "function"
    }
  ],
  "transactionHash": "0xb462c89d24824440eb0f9a467ffc246c632a2fd3d86026efc9e39593c36e7883",
  "args": [
    "0x0000000000000000000000000000000000000000",
    "0x0000000000000000000000000000000000000000",
    "0xbd49D2e3E501918CD08Eb4cCa34984F428c83464",
    "0xF987ef4dE04C5dD27b71857e8533F7eB35f348c9"
  ],
  "numDeployments": 1,
  "solcInputHash": "7fcdd6c759397352e26d10b1e8551bba",
  "bytecode": "0x608060405234801561001057600080fd5b5060405161024d38038061024d83398101604081905261002f9161009e565b600080546001600160a01b039586166001600160a01b03199182161790915560018054948616948216949094179093556002805492851692841692909217909155600380549190931691161790556100f2565b80516001600160a01b038116811461009957600080fd5b919050565b600080600080608085870312156100b457600080fd5b6100bd85610082565b93506100cb60208601610082565b92506100d960408601610082565b91506100e760608601610082565b905092959194509250565b61014c806101016000396000f3fe608060405234801561001057600080fd5b50600436106100615760003560e01c8062ae616a146100665780635f3281ca1461009657806376cdb03b1461009d578063a9de2f3a146100b0578063b59589d1146100f0578063c09975cd14610103575b600080fd5b600254610079906001600160a01b031681565b6040516001600160a01b0390911681526020015b60405180910390f35b6000610079565b600054610079906001600160a01b031681565b600054600154600254600354604080516001600160a01b03958616815293851660208501529184169183019190915291909116606082015260800161008d565b600154610079906001600160a01b031681565b600354610079906001600160a01b03168156fea2646970667358221220b80790e921185d3944e7c11642f0a017efab06f84e75b3c097c1e97fd027285664736f6c63430008110033",
  "devdoc": {
    "kind": "dev",
    "methods": {},
    "title": "BridgeStub",
    "version": 1
  },
  "userdoc": {
    "kind": "user",
    "methods": {},
    "notice": "Minimal stub implementation of Bridge contract for local development",
    "version": 1
  },
  "storageLayout": {
    "storage": [
      {
        "astId": 4,
        "contract": "contracts/BridgeStub.sol:BridgeStub",
        "label": "bank",
        "offset": 0,
        "slot": "0",
        "type": "t_address"
      },
      {
        "astId": 6,
        "contract": "contracts/BridgeStub.sol:BridgeStub",
        "label": "relay",
        "offset": 0,
        "slot": "1",
        "type": "t_address"
      },
      {
        "astId": 8,
        "contract": "contracts/BridgeStub.sol:BridgeStub",
        "label": "ecdsaWalletRegistry",
        "offset": 0,
        "slot": "2",
        "type": "t_address"
      },
      {
        "astId": 10,
        "contract": "contracts/BridgeStub.sol:BridgeStub",
        "label": "reimbursementPool",
        "offset": 0,
        "slot": "3",
        "type": "t_address"
      }
    ],
    "types": {
      "t_address": {
        "encoding": "inplace",
        "label": "address",
        "numberOfBytes": "20"
      }
    }
  }
}